:020000040800F2
:1000000038F10020C902000835AF000877850008E4
:10001000CFA50008592E0008A51201080000000015
:100020000000000000000000000000000D020008B9
:100030004D36000800000000610200087FF2000851
:10004000E3020008E3020008E3020008E3020008FC
:10005000E3020008E3020008E3020008E3020008EC
:10006000E3020008E3020008E30200082D32000862
:10007000A9320008E3020008E3020008293300085F
:10008000E3020008E3020008E3020008E3020008BC
:10009000E3020008E3020008E3020008E3020008AC
:1000A000E3020008E3020008E3020008E30200089C
:1000B000E3020008E3020008E3020008E30200088C
:1000C000E3020008E3020008E3020008E30200087C
:1000D000E30200088510010895110108E3020008F9
:1000E000E5360008E3020008E3020008E302000826
:1000F000E3020008E3020008E3020008E30200084C
:10010000E3020008F5D00008BDF70008E30200088C
:1001100045070108E3020008E3020008EDF70008C4
:10012000A5330008E3020008E3020008B533000825
:10013000E3020008E3020008E3020008E30200080B
:10014000E3020008E3020008E3020008E3020008FB
:10015000E3020008C5330008D5330008E3020008B5
:10016000E3020008E3020008E3020008E3020008DB
:10017000E3020008E3020008E302000800000000B8
:10018000E3020008E302000859080108250A0108F3
:10019000E3020008E3020008E3020008E3020008AB
:1001A000E3020008E3020008E3020008E30200089B
:1001B000E3020008E3020008E3020008E30200088B
:1001C000E3020008E302000800000000E302000868
:1001D000E3020008E3020008E3020008E30200086B
:1001E000E3020008E3020008E3020008E30200085B
:1001F000E3020008E3020008DFF80CD000F08AFCFC
:1002000000480047E558010838F100202B4B1968D9
:100210000868B0E8F04F80F30988BFF36F8F4FF0A4
:10022000000080F311887047000000000648006855
:10023000006880F3088862B661B6BFF34F8FBFF3E2
:100240006F8F00DF00BF00BF08ED00E0DFF80C009B
:10025000016841F470010160704700BF88ED00E063
:10026000EFF30980BFF36F8F144B1A681EF0100F65
:1002700008BF20ED108A20E9F04F106008B44FF05D
:10028000500072B680F31188BFF34F8FBFF36F8FAA
:1002900062B617F03DFA4FF0000080F3118808BCF9
:1002A00019680868B0E8F04F1EF0100F08BFB0ECF6
:1002B000108A80F30988BFF36F8F704720000020F9
:1002C000EFF3058070470000064880470648004766
:1002D000FEE7FEE7FEE7FEE7FEE7FEE7FEE7FEE7F6
:1002E000FEE7FEE759F70008F90100084DF8044D54
:1002F000DFED490A20EE201AB5EEC01AF1EE10FA31
:1003000038BFB1EE411ABDEEC12ADFED442ADFF855
:1003100010C1F0EE001AB0EE084ADFED420AB5EE69
:10032000C00AF7EE003AF1EE10FAB8EEC20A31EE6A
:10033000400A20EE220ABCEEC01A11EE102AC2F3C7
:10034000080201EE102A0CEB820302F18004B8EEE1
:10035000411AD3ED012AC4F3080293ED002A30EECE
:10036000410A0CEB8202F1EE622AB1EE422A92EDD2
:10037000001A92ED013AF0EE625A72EE222A33EE42
:10038000C06A73EEC04A73EE413A41EE825A22EEE1
:10039000A05A26EE016A63EE842A01EEE35A00EECB
:1003A000036A45EEE02A40EE052A60EE222A42EE7C
:1003B000202A00EE221A81ED001AD2ED012A92EDD8
:1003C000002A93ED001A93ED015AF0EE625A72EE94
:1003D000222A35EE413A41EE825A64EE814A62EEBB
:1003E000A03A63EE042A40EE054A41EEC33A45EED8
:1003F000E02A40EE232A60EE221A42EE201A00EE96
:10040000211A80ED001A3CBFB1EE410A80ED000ACE
:100410005DF8044B70470000610B363B0000004460
:10042000FC880108DB0F493C2DE9F05F0546002000
:1004300092469B4688460646814640241BE0284655
:1004400041464746224600F0DAF853465A46C01A5B
:10045000914110D311461846224600F0C1F82D1ADA
:1004600067EB01084F4622460120002100F0B8F852
:1004700017EB00094E41201EA4F10104DFDC4846C1
:1004800031462A464346BDE8F09F40EA01039B07F8
:1004900003D009E008C9121F08C0042AFAD203E0F9
:1004A00011F8013B00F8013B521EF9D27047D2B25D
:1004B00001E000F8012B491EFBD270470022F6E74D
:1004C00010B513460A4604461946FFF7F0FF2046CA
:1004D00010BD10B5044604E00B7800F8013B03B1F1
:1004E000491C521EF8D2204610BDCAB2401E10F858
:1004F000011F8A4202D00029F9D100207047421C16
:1005000010F8011B0029FBD1801A704730B5054651
:100510000020034600E05B1C934205D2EC5CC85C03
:10052000201A01D1002CF6D130BD2DE9F0479146BB
:100530000F4680460446002614F8015B2DB100F0FA
:100540006FF80068405DC007F6D12B2D02D02D2D2D
:1005500018D0641E4A463946204600F06EF827B18E
:100560003968A14201D1C7F8008071054FF002043B
:100570000BD54042002803DD11F092F90460A0077A
:10058000BDE8F08746F48066E4E70028F8DA11F069
:1005900087F904606FF00040F2E770B5064611F08D
:1005A0007FF9046805460A2200213046FFF7BDFFA7
:1005B0002C6070BD30B50B4601460020202201247E
:1005C00009E021FA02F59D4205D303FA02F5491B21
:1005D00004FA02F52844151EA2F10102F1DC30BD37
:1005E000202A04DB203A00FA02F1002070479140F3
:1005F000C2F1200320FA03F3194390407047202AE8
:1006000004DB203A21FA02F00021704721FA02F3BC
:10061000D040C2F1200291400843194670470000C3
:10062000004870473493010810B50446FFF7F8FFFF
:100630000068005D00F0010010BD2DE9F05F82460A
:100640000078002715468B460AF10104B946302888
:1006500001D09DB113E014F8010B0127782803D0D5
:10066000582801D045B10AE00DB1102D07D100275F
:10067000102514F8010B02E0082500E00A250026E9
:10068000B0460EE005FB080005FB06F1012701EB73
:1006900010461FFA80F8B6F5803F00D3B94614F82B
:1006A000010B294600F05AFA0028EBDABBF1000FE3
:1006B00005D00FB1641E00E05446CBF80040B9F1FC
:1006C000000F06D011F0ECF802210160C81EBDE851
:1006D000F09F48EA0640FAE70FB4002300B589B05E
:1006E0000CA900910B996FF00042CB601E4B069352
:1006F0001E4B07930423CDE901321D4A089202469E
:100700006B46002000F0B8FA09B05DF814FB70B534
:1007100086B006464FF0FF300091CDE90101002080
:1007200015460C4604903246694604A8FFF7D4FFEC
:1007300003460498211825B108B10A4600E0224674
:100740002A6000280DD0002B02DD0098884208D0D6
:10075000081B0094CDE901043246694604A8FFF75E
:10076000BBFF06B070BD0000B10E0008CF0E000840
:10077000290600082DE9FE4F804681EA0300C00FDC
:100780000C46009021F0004123F00045B8EB020038
:10079000A94105D24046214690461C460B460246DA
:1007A00023F00040104347D0270DC7F30A00C3F3DE
:1007B0000A510290401A019040286BDAC3F31300EB
:1007C00040F4801B0098924620B10023D2EB030A2C
:1007D00063EB0B0B01985946C0F140025046FFF7FE
:1007E000FFFE06460D4650465946019A00F0A4F910
:1007F00010EB08006141002487EA115284EAE77394
:100800001A4340D0009A62B3019A012A4FEA075274
:1008100015DC001B61EB02014FF0004202EA0752B7
:10082000CDE90042001C41F5801132462B4600F014
:100830006EFB03B0BDE8F08F40462146F9E7001B90
:1008400061EB0201001C41F5801300185B41201888
:10085000A2F5001747EB030140EAD570B6196D41C8
:1008600011E06D084FEA360645EAC0754FEA0752B7
:10087000001B61EB0201001C41F5801149084FEAA1
:1008800030000019514132462B4603B0BDE8F04F0D
:1008900000F02EBB0098012240000023D0EB0202A2
:1008A00063EBE073009821464FEAE074B8EB000078
:1008B00061EB0401E9E783F000435BE781F000416D
:1008C00058E72DE9FE4F81EA030404F0004421F0CB
:1008D000004100944FF0000B23F0004350EA010464
:1008E0005ED052EA03045BD0C3F30A54C1F30A5545
:1008F0002C44A4F2F3340194A0FB0254C1F313017D
:1009000041F48011C3F3130343F4801301FB024449
:1009100000FB034E840A970A44EA815447EA83574E
:10092000A4FB076802958D0A05FB07854FEA932C07
:1009300004FB0C542705029D4FEA065847EA163778
:10094000B5EB08056EEB070C870E920E47EA811790
:1009500042EA8312A7FB0201B6EB0B0164EB000431
:100960002B0D43EA0C335E1844EB1C50DA4651461B
:10097000E7FB0201C5F313044FEA0B3343EA1453B8
:100980004FEA0432019C43EA0603A4F10C040294EA
:10099000009CCDE900B400F0BAFA03B0BDE8F08FD6
:1009A00000200146F9E72DE9F04D81EA030404F047
:1009B000004B21F0004514464FF0000A23F000419F
:1009C00050EA050220D054EA01021DD0C5F30A57AF
:1009D0000246C5F31303C1F31300C1F30A5640F4F2
:1009E000801543F48013A7EB0608101BD64608F2C7
:1009F000FD3873EB050002D308F1010801E09218FD
:100A00005B41B8F1000F03DA00200146BDE8F08D2C
:100A100000204FF48011064684460EE0171B73EB4E
:100A2000050705D3121B63EB050306434CEA010CD3
:100A300049084FEA300092185B4150EA0107EDD1B6
:100A400052EA030012D082EA040083EA0501084357
:100A500005D0101BAB4106D20122002306E0002284
:100A60004FF0004302E06FF0010253101AEB060052
:100A70004CEB085110EB0A0041EB0B01BDE8F04DC7
:100A800000F036BA70B521F0004303430CD0C1F337
:100A90000A550024D5EB040564EB0403D617AD1A00
:100AA000B34102DB0020014670BD201841EB02512A
:100AB00070BDC1F30A52C1F3130140F2FF3341F498
:100AC00080119A4202DA00200146704740F2334317
:100AD0009A42A2F2334202DC5242FFF790BDFFF786
:100AE0007FBD000030B5041E71F1000404DB4FF03F
:100AF0000044404264EB0101141E73F1000405DB65
:100B00001C464FF00043524263EB0403994208BF76
:100B1000904230BD064C074D06E0E06840F001030E
:100B200094E8070098471034AC42F6D3FFF768FB0F
:100B3000C8930108E8930108202A06DBCB17203A66
:100B400041FA02F043EAE07306E041FA02F3D040D2
:100B5000C2F1200291400843194670473A2800D25A
:100B6000303820F02002412A01D3A2F13700884218
:100B700001D34FF0FF3070472DE9FF4F087881B067
:100B80009946FF2805D0491C2D2804D000240023B5
:100B900008E000230BE00124F9E703EB830300EBFB
:100BA0004303491C0878FF28F7D104B15B420020B9
:100BB0000090147801462D2C01D02B2C04D1521C0E
:100BC0002D2C12D00024009400251678FF2E0ED074
:100BD0000A24A0FB04C801FB0481002700FB0711C5
:100BE000521C16EB0C006941EFE70124EBE7994436
:100BF00050EA01020ED00024AA4D2646DFF8A88252
:100C000000F0D3F982468B46B9F1000009DAC9F148
:100C100000071BE001980021C0E9001105B0BDE804
:100C2000F08F074612E0F80707D022462B463046E1
:100C30004146FFF746FE0646884622462B461046AA
:100C40001946FFF73EFE04460D467F10002FEAD1FD
:100C5000B9F1000F324643465046594602DAFFF7D3
:100C6000A2FE01E0FFF72DFE009A0AB181F00041DB
:100C7000019AC2E90001D1E72DE9FF4F1F468DB06F
:100C8000D7E901464FF0FF382E2045464FF00009C6
:100C90000B90B9696D1C0E988847396A824688475F
:100CA0000028F6D1BAF1FF3F0AD024F4D064002E18
:100CB00011DDBAF12B0F08D0BAF12D0F0BD102E0E4
:100CC000404611B0ABE744F48064B9696D1C0E98DE
:100CD00088478246761E6946600501D52D2000E0D2
:100CE0002B208DF8000001F1010B0DF1200809E027
:100CF000B9696D1C0E98884782460F9844F40074B9
:100D0000761E0560002E02DDBAF1300FF0D00B998F
:100D10008A453ED144F0800406E00F99681CA9F191
:100D2000010944F400740860B9696D1C761E0E98C0
:100D3000884782463028F0D02BE00B998A4505D1B0
:100D4000200603D444F08004761E18E0504612F0CA
:100D50007FF808B30DF11301761E44F400748B453F
:100D600008D2AAF130000BF8010B200607D5A9F133
:100D7000010003E0200602D409F101008146A0052C
:100D800002D50F99681C0860B9696D1C0E988847D8
:100D90008246002ED1DC53E0002E51DDBAF1650F02
:100DA00002D0BAF1450F4BD1A00549D5B9696D1CE8
:100DB00024F44074761E0E9888478246002E0CDD7F
:100DC0002B2804D0BAF12D0F07D144F48074B969EF
:100DD0006D1C0E9888478246761EE00501D52D21B0
:100DE00000E02B2108F8011BCDF82C8021E00DF14B
:100DF0002901761E44F4007488450CD2AAF1300013
:100E000010F0FF0088F8000002D10B99884509D93D
:100E100008F1010806E0E00501D5244801E042F2AE
:100E20000F708146B9696D1C0E98884782460F98ED
:100E30000560002E04DD504612F00AF80028D6D1D5
:100E4000F9690E988847FF208BF8000088F80000A9
:100E50000020069007904B466A4608A906A8FFF7AF
:100E60008BFEA00502D46FF001002AE714F0240FD6
:100E70000AD0E00714D1DDE906123868031D3B6093
:100E80000068C0E900120BE0DDE9060100F099F806
:100E90000146E00704D13868021D3A60006801602D
:100EA00028460EE7000024400000F03FF1D8FFFF85
:100EB000426842B1016811F8013B23B1521EC0E9FA
:100EC0000012184670470121C160881E70474268B1
:100ED0005AB1C368016843B983688B4205D0491E83
:100EE000521CC0E90012002070474FF0FF307047DD
:100EF00010B5141E73F1000408DA401C41F1000122
:100F000092185B411A4301D120F0010010BD2DE978
:100F1000F04D92469B4611B1B1FA81F202E0B0FA6F
:100F200080F220329046FFF75BFB04460F4640EA12
:100F30000A0041EA0B0153465A46084313D01146B2
:100F400053EA010019D0C8F140025046FFF757FBA1
:100F500005460E46504659464246FFF741FB0843B8
:100F600005D0012004E020463946BDE8F08D002080
:100F7000054346EAE0762C4337430A986305E40AC2
:100F8000A0EB08000022FD0A44EA47540A3002D5CB
:100F900000200146E9E7010510196941DDE908452E
:100FA00000196941BDE8F04DA2E70EB540F23342A9
:100FB00002920022CDE900221346FFF7A8FF03B0FA
:100FC00000BD01F0004330B421F0004150EA0102BD
:100FD00006D00A0DA2F56072C1F31301002A02DCEB
:100FE00030BC00207047440F44EAC104C100E0183F
:100FF00030BC00EBC250AFF300800029A8BF70479F
:10100000401C490008BF20F00100704710B4B0FA3E
:1010100080FC00FA0CF050EA010404BF10BC7047D9
:1010200049B1CCF1200421FA04F411FA0CF118BFF3
:10103000012121430843A3EB0C01CB1D4FEA0061C2
:101040004FEA102042BF002010BC704700EBC35095
:1010500010440029A4BF10BC7047401C490008BFC1
:1010600020F0010010BC704770B58C1810F8015BBF
:1010700015F0070301D110F8013B2A1106D110F831
:10108000012B03E010F8016B01F8016B5B1EF9D135
:101090002B0705D40023521E0DD401F8013BFAE7BB
:1010A00010F8013BCB1A921C03E013F8015B01F826
:1010B000015B521EF9D5A142D8D3002070BD0000BB
:1010C0005A49096821F44031594AC2F804131146BB
:1010D000D1F8041342681143544A11600168496809
:1010E00021F480710268516001684A68016942EA2E
:1010F0000121026851600168496821F0407102686D
:101100005160016849688268114302685160016852
:10111000896821F400610268916001688968C26889
:10112000114302689160434A816A914218D0016874
:10113000896821F070610268916001688968826A3B
:101140001143026891600168896821F0405102688A
:10115000916001688968C26A1143026891600BE07E
:101160000168896821F0706102689160016889688E
:1011700021F04051026891600168896821F0020104
:101180000268916001688A68816942EA41010268E7
:101190009160016AD1B10168496841F40061026857
:1011A00051600168496821F460410268516001683A
:1011B0004A68416A491E4FF4604393FAA3F3B3FAB5
:1011C00083F399400A4301684A6005E00168496871
:1011D00021F40061026851600168C96A21F470015C
:1011E0000268D1620168CA6A818B491E42EA0151D4
:1011F0000268D1620168896821F400710268916017
:1012000001688A68016B42EA4121026891600168C5
:10121000896821F480610268916001688A68416987
:1012200042EA812102689160704700000423014076
:10123000002001400100000F38B5044694F8610019
:10124000032805D094F86100042801D0002038BD9F
:1012500004F108000EF0DEFC204600F0A3FA08B905
:101260000020F4E7204600F0EDF894F9161004F1A0
:10127000280030F8111094F916200C3830F81200BC
:10128000081A94F91510484300B2E08694F9181032
:1012900004F1280030F8111094F918200C3830F8B7
:1012A0001200081A94F91710484301B2218794F9E3
:1012B0001A1004F1280030F8111094F91A200C3893
:1012C00030F81200081A94F91910484301B26187E6
:1012D00094F9161004F12E0030F8111094F916202C
:1012E0000C3830F81200081A94F91510484300B26F
:1012F000A08794F9181004F12E0030F8111094F919
:1013000018200C3830F81200081A94F917104843C6
:1013100001B2E18794F91A1004F12E0030F811108F
:1013200094F91A200C3830F81200081A94F91910A0
:10133000484301B240200153B4F9360000EE100AD0
:10134000B8EEC00ADFED3C0A20EE200A84ED110A57
:10135000B4F9380000EE100AB8EEC00ADFED360A24
:1013600020EE200A84ED120AB4F93A0000EE100AC9
:10137000B8EEC00ADFED300A20EE200A84ED130A31
:10138000B4F93C0000EE100AB8EEC00ADFED2B0AFB
:1013900020EE200A84ED140AB4F93E0000EE100A93
:1013A000B8EEC00ADFED250A20EE200A84ED150A0A
:1013B000B4F9400000EE100AB8EEC00ADFED1F0AD3
:1013C00020EE200A84ED160AB4F9340000EE100A6B
:1013D000B8EEC00ADFED1A0A20EE200A84ED170AE3
:1013E000012004F11003032204F14401009004F1F0
:1013F0006C000DF091FE022004F11003032204F1B1
:101400005001009004F178000DF086FE022004F1F6
:101410001003012204F15C01009008460DF07CFEEF
:10142000012084F8600004F108000EF0F3FBE0688E
:10143000606601200BE70000B5E0053DCDCC4C3DDA
:101440004F771E3B38B504465648006810B95548DA
:10145000046005E053480068A04201D0002038BD78
:10146000207D01280BD100202075032084F8610025
:1014700001204D4908704DA0616802F015F94A48F5
:101480000078012801D00120E9E74C480178007874
:10149000401C4A4A1070022901DA0020DFE7484860
:1014A00001880088401C464A1080B1F5967F2CDAEE
:1014B0000020424908704348D0ED000AB4F92E00DC
:1014C00000EE100AB8EEC00A30EE800A3D4880ED0A
:1014D000000AD0ED010AB4F9300000EE100AB8EEAF
:1014E000C00A30EE800A374880ED010AD0ED020ACA
:1014F000B4F9320000EE100AB8EEC00A30EE800AED
:10150000304880ED020A0020A9E700202C4908801D
:101510002C4890ED000ADFED2C0A80EE201ABDEE7B
:10152000C10A10EE100A00B26084264890ED010A4C
:10153000DFED250A80EE201ABDEEC10A10EE100A7A
:1015400001B2A1841F4890ED020ADFED1F0A80EE70
:10155000201ABDEEC10A10EE100A01B2E1849FED1F
:101560001B0A184880ED000A9FED180A80ED010A59
:101570009FED160A80ED020AB4F926000090B4F936
:101580002430B4F9222012A0616802F08DF8042002
:1015900084F86100002004490870024908600120B5
:1015A0005DE70000D0000020D40000200D0A257364
:1015B000204779722043616C690D0A00D800002031
:1015C000D6000020D4530020000096430000000005
:1015D0000D0A25732043616C692D2D4269617320CA
:1015E00069733A25642025642025640D0A000000F3
:1015F00070B504462FA0616802F056F894F86100B7
:10160000012804D02FA002F04FF8002070BD94F8FC
:101610006200012804D12FA002F046F80020F5E76F
:1016200030A002F041F8022084F861000025002675
:101630004FF4AC41206800F02FF9012003F0BFFB0C
:101640004FF47051206800F03DF90546012003F089
:10165000B6FB4FF47051206800F034F9064643F6AB
:10166000E87085420AD0401D854207D021A002F0D3
:101670001BF8032084F862000020C7E721A002F0D5
:1016800013F84FF67F40304038B122A002F00CF83A
:10169000042084F862000020B8E722A002F004F8D9
:1016A000042084F8610023A0616801F0FDFF01209F
:1016B000ACE700000D0A257320496E69742E2E2EAA
:1016C0000D0A00002D2D506172205B4E4F5D0D0AFA
:1016D000000000002D2D446972205B4E4F5D0D0A05
:1016E000000000002D2D446972205B4F4B5D0D0AF8
:1016F000000000002D2D43686B205B4E4F5D0D0AEE
:10170000000000002D2D43686B205B4F4B5D0D0AE0
:10171000000000002D2D537461205B4E4F5D0D0ABB
:10172000000000002D2D537461205B4F4B5D0D0AAE
:1017300000000000257320496E69742E5B4F4B5DDD
:101740000D0A000070B504460D46002084F86000C4
:10175000012084F86100002084F86200286820607D
:1017600068686060002020822989618204F1150088
:10177000E96801F06CFF10B9012084F862009FED68
:10178000080A84ED1A0A288AA083698AE183A98A53
:101790002184E88A6084298BA184698BE18470BDEF
:1017A00000001E4130B589B004463A4B0FCB05AD61
:1017B0000FC500250CE005AA32F81510206800F0CE
:1017C00081F801A921F815000A200FF06DFD6D1CAC
:1017D000082DF0DBBDF804004FF67F41084028B12A
:1017E000042084F86200002009B030BDBDF8060076
:1017F00000F4005038B1BDF80600C0F30B00A0F5AE
:101800008050A08604E0BDF80600C0F30B00A0865F
:1018100000203AE001AA811C32F8111001F40051B5
:1018200059B1811C32F81110C1F30D01A1F58041AD
:1018300004F12E0222F8101009E001AA811C32F8EE
:101840001110C1F30D0204F12E0121F8102001AA9C
:10185000411D32F8111001F4005159B1411D32F807
:101860001110C1F30D01A1F5804104F1280222F805
:10187000101009E001AA411D32F81110C1F30D0248
:1018800004F1280121F81020401C0328C2DB0120AC
:10189000AAE700006088010813B5044600224FF44F
:1018A0008051074803F0B0FB0A23012201A920461A
:1018B00005F09DFE01221103014803F0A5FB1CBDAC
:1018C0000004024013B582B0044600224FF4805158
:1018D000094803F099FB0A20012301AA03A90090FB
:1018E000204605F03DFF01221103034803F08CFB65
:1018F000BDF8040004B010BD0004024010B52DED89
:10190000108B98B0044604F10C000EF083F900BF70
:10191000FE4890F8600000B90DE0FC4890ED1E0A0A
:1019200084ED140A90ED1F0A84ED150A90ED200A4B
:1019300084ED160A00BF00BF00BFF44890F86000B5
:1019400000B922E3F14890ED1B0A8DED150A90EDE8
:101950001C0AF0EE40FA90ED1D0AB0EE40AADDED53
:10196000150A60EEA00A4FEEAF0A4AEE0A0AB0EE80
:10197000600A13F081FF8DED140ADDED150A9DED6F
:10198000140A20EE800A8DED150A9DED140A2FEE43
:10199000800AF0EE40FA9DED140A2AEE000AB0EE3D
:1019A00040AA94ED0E0A8DED130A94ED0F0A8DED09
:1019B000120A94ED100A8DED110AD54890EDB70A80
:1019C000B0EE409A90EDB80AF0EE408A90EDB90A78
:1019D000F0EE409A69EE090A48EEA80A49EEA90A13
:1019E000B0EE600A13F048FF8DED100A9DED100A6D
:1019F00029EE000AB0EE409A9DED100A28EE800A0A
:101A0000F0EE408A9DED100A29EE800AF0EE409A31
:101A100094ED080A20EE090AD4ED090A08EEA00A9E
:101A2000D4ED0A0A09EEA00A8DED0F0A94ED0B0A17
:101A300020EE090AD4ED0C0A08EEA00AD4ED0D0A36
:101A400009EEA00A8DED0E0A94ED0E0A20EE090AA9
:101A5000D4ED0F0A08EEA00AD4ED100AF0EE40AA69
:101A600049EEA0AA9DED0F0A60EE000A9DED0E0A58
:101A700040EE000AB7EEE00AB0EE401B10F014FE94
:101A8000B7EEC00B8DED0D0AB0EE6ABAD4ED080AC0
:101A90009DED0D0A20EE800AD4ED0E0AF0EE4BAA61
:101AA0000AEEA00A8DED0C0AD4ED090A9DED0D0A8F
:101AB00020EE800AD4ED0F0AF0EE4BAA0AEEA00A3F
:101AC0008DED0B0AD4ED0A0A9DED0D0A20EE800A79
:101AD000D4ED100AF0EE4BAA0AEEA00A8DED0A0A28
:101AE0008A4890ED1E0ADFED8B0A20EE200A8DED6C
:101AF000090A90ED1F0ADFED870A20EE200A8DED1E
:101B0000080A90ED200ADFED830A20EE200A8DED11
:101B1000070AB7EE000A8DED060AB7EE000A8DED52
:101B2000050A7B4890F8DA0218B99FED7B0A8DED23
:101B3000060A9DED110A6FEE800A9DED120A4AEE2B
:101B4000400A9DED050A20EE800A8DED040A9DED08
:101B5000130A2AEE001A9DED150ADDED110A00EEBA
:101B6000601A9DED050A21EE000A8DED030A9DED38
:101B70000B0A69EE000A9DED0C0A48EEC00A9DEDC5
:101B8000060A20EE800A8DED020AD4ED310A9DEDA1
:101B9000040A30EE800A84ED310AD4ED320A9DED5C
:101BA000030A30EE800A84ED320AD4ED330A9DED4B
:101BB000020A30EE800A84ED330ADDED090A9DED5C
:101BC000040A9FED561A40EE010A94ED310A9FED8A
:101BD000541A40EE010A94ED070A60EE80BADDED7A
:101BE000080A9DED030A9FED4D1A40EE010A94ED9F
:101BF000320A9FED4B1A40EE010A94ED070A20EEDF
:101C000080CADDED070A9DED020A9FED441A40EE01
:101C1000010A94ED330A9FED421A40EE010A94ED59
:101C2000070A60EE80CA94ED2DDAD4ED2EDA94ED39
:101C30002FEAD4ED30EAB0EE4D0A0DEEEB0A0EEECF
:101C40004C0A0EEEEC0A84ED2D0AB0EE6D0A0DEE94
:101C50002B0A0EEE2C0A0EEECC0A84ED2E0A2DEE87
:101C60000C0A0DEEEC0A30EE0E0A0EEEAB0A84ED15
:101C70002F0A2DEE2C0A0DEE8C0A0EEE6B0A30EEBA
:101C80002E0A84ED300AD4ED2D0A60EEA00A94ED00
:101C90002E1AD4ED2E1A41EE210A94ED2F1AD4ED0E
:101CA0002F1A41EE210A94ED301AD4ED301A41EE8C
:101CB000210AB0EE600A13F0DFFDB0EE40FA94EDB9
:101CC0002D0A20EE0F0A84ED2D0A94ED2E0A20EE47
:101CD0000F0A84ED2E0A94ED2F0A20EE0F0A84EDF0
:101CE0002F0A94ED300A20EE0F0A84ED300A94EDAD
:101CF0002F0A20EE000AD4ED300A94ED301A00EEDF
:101D0000810AF7EE000AB0EE001A0BE04C530020F7
:101D10009056002035FA8E3C000000003333333FEC
:101D20006F12833A41EE400AC4ED080A94ED2E0A80
:101D3000D4ED2F0A20EE200AD4ED2D0A94ED301AAE
:101D400000EEC10AF0EE000A20EE200A84ED090A36
:101D500094ED2E0AD4ED300A20EE200AD4ED2D0A9F
:101D600094ED2F1A00EE810AF0EE000A20EE200A10
:101D700084ED0A0A94ED2E0AD4ED2F0A20EE200AF3
:101D8000D4ED2D0A94ED301A00EE810AF0EE000A2F
:101D900020EE200A84ED0B0A94ED2E0A20EE000AB4
:101DA000D4ED300A94ED301A00EE810AF7EE000A05
:101DB000B0EE001A41EE400AC4ED0C0A94ED2F0A71
:101DC000D4ED300A20EE200AD4ED2D0A94ED2E1A1F
:101DD00000EEC10AF0EE000A20EE200A84ED0D0AA2
:101DE00094ED2E0AD4ED300A20EE200AD4ED2D0A0F
:101DF00094ED2F1A00EEC10AF0EE000A20EE200A40
:101E000084ED0E0A94ED2F0AD4ED300A20EE200A5C
:101E1000D4ED2D0A94ED2E1A00EE810AF0EE000AA0
:101E200020EE200A84ED0F0A94ED2E0A20EE000A1F
:101E3000D4ED2F0A94ED2F1A00EE810AF7EE000A76
:101E4000B0EE001A41EE400AC4ED100A94ED2E1ACD
:101E5000F8EE001A21EE211AD4ED2E1A21EE211AE5
:101E6000D4ED2F1AB0EE002A61EE821A94ED2F2ADB
:101E700001EEC21AF7EE001A31EE211AF0EE410A15
:101E800094ED2F1AF0EE001A21EE211AD4ED301A3B
:101E900021EE211AD4ED2D1AB0EE002A61EE821A3D
:101EA00094ED2E2A01EE821AB0EE410A0FF098FD51
:101EB000D4ED110A9FEDFE1A50EE010AC4ED170A87
:101EC000D4ED2E0AB8EE001A60EE810A94ED301AB5
:101ED00060EE810A94ED2D1AF0EE001A21EE211A1F
:101EE000D4ED2F1A41EE210AB0EE600AB7EE001AC7
:101EF000FFEE000A11F09CFF8DED010A9DED010A35
:101F00000FF0D2FCD4ED120A9FEDE91A50EE010A4F
:101F1000C4ED180A94ED2F1AF8EE001A21EE211ADA
:101F2000D4ED2F1A21EE211AD4ED301AB0EE002A8A
:101F300061EE821A94ED302A01EEC21AF7EE001A11
:101F400031EE211AF0EE410A94ED2E1AF0EE001A4D
:101F500021EE211AD4ED2F1A21EE211AD4ED2D1ADB
:101F6000B0EE002A61EE821A94ED302A01EE821A58
:101F7000B0EE410A0FF034FDD4ED130A9FEDCC1AF8
:101F800050EE010AC4ED190A00BF00BFC948D0EDE8
:101F9000190AB0EE600A16A917A8FEF7A7F994ED82
:101FA000070AF0EE000A20EE208AD4ED100AB7EE00
:101FB000001A81EE200AF7EE000A30EE600AF0EE19
:101FC000408A1FEDAA1A5FEDAC0A11F031FF84EDD3
:101FD0002C0A00BFB84890F8600000B963E0B6482A
:101FE00090ED1B0AD4ED080A20EE200AD0ED1C0A61
:101FF00094ED091A00EE810AD0ED1D0A94ED0A1A3B
:1020000000EE810A84ED1D0A90ED1B0AD4ED0B0A47
:1020100020EE200AD0ED1C0A94ED0C1A00EE810A85
:10202000D0ED1D0A94ED0D1A00EE810A84ED1E0A12
:1020300090ED1B0AD4ED0E0A20EE200AD0ED1C0A0A
:1020400094ED0F1A00EE810AD0ED1D0A94ED101ADE
:1020500000EE810AD0ED1A0A30EE600A84ED1F0A04
:1020600094ED1D0ADDED160A20EE200AD4ED1E0ABD
:102070009DED171A00EE810A84ED1A0A94ED1D0AEF
:10208000B1EE400ADDED170A20EE200AD4ED1E0A5B
:102090009DED161A00EE810A84ED1B0A94ED1F0ACD
:1020A00084ED1C0A00BF00BF00BF844A07CA13ABFF
:1020B00007C3834890F8A00238B91FEDE91A8DEDE7
:1020C000131A1FEDEB1A8DED141A94ED231AD4EDAB
:1020D0001D1A01EE881ADDED131AB7EE002A72EE12
:1020E000611A21EE211AB7EEC11A9DED132AB7EE3F
:1020F000C22A734890EDB03B02EE031BB7EEC11B42
:1021000084ED231A94ED241AD4ED1E1A01EE881AD8
:10211000DDED141AB7EE002A72EE611A21EE211AD3
:10212000B7EEC11A9DED142AB7EEC22A90EDB23B6C
:1021300002EE031BB7EEC11B84ED241A9FED610A6A
:10214000DFED600A604890F83E0098B95E4890F86C
:102150003D0004280ED15C4890ED291AB1EE411AD9
:1021600031EE001AB0EE410AB7EE001A30EE811AD5
:10217000F0EE410A544890F8E60098B9524890F8B9
:10218000E50004280ED1504890ED531AB1EE411AE3
:1021900031EE001AB0EE410AB7EE001A30EE811AA5
:1021A000F0EE410A4948C07D012819D194ED2B1A5F
:1021B000B1EE411AF0EE081AB4EEE11AF1EE10FA9F
:1021C0000ED2424890ED121AB1EE411A31EE001AC9
:1021D000B0EE410AB7EE001A30EE811AF0EE410A75
:1021E000F5EEC00AF1EE10FA04DD80EE201AB0EE32
:1021F000410A03E09FED331A8DED151A94ED251A6F
:10220000D4ED1F1A01EE881ADDED151AB7EE002A7B
:1022100072EE611A21EE211ADDED151A01EE801A17
:1022200084ED251A94ED231ADDED161A21EE211AFC
:10223000D4ED241A9DED172A01EE821A84ED201A9E
:1022400094ED231AB1EE411ADDED171A21EE211A91
:10225000D4ED241A9DED162A01EE821A84ED211A7E
:1022600094ED251A84ED221A00BF00BF134A0C32E8
:1022700007CA13AB07C3164890F8A00038B99FED02
:10228000110A8DED130A9FED0F0A8DED140A94EDDE
:10229000290AD4ED230A00EE880ADDED130AB7EE11
:1022A000001A71EE600A20EE200ADDED130A11E03B
:1022B000E02E6542E05300204C5300207088010856
:1022C00090560020000000002CA60020C8550020D9
:1022D00074B000206D4890ED2E1A00EE810A84ED56
:1022E000290A94ED2A0AD4ED240A00EE880ADDEDCD
:1022F000140AB7EE001A71EE600A20EE200ADDED36
:10230000140A90ED2F1A00EE810A84ED2A0A1FEDBF
:10231000139A5FED148A5E4890F83E0098B95C48C5
:1023200090F83D0004280ED1594890ED290AB1EEED
:10233000400A30EE090AB0EE409AB7EE000A38EED5
:10234000800AF0EE408A524890F8E60098B950486A
:1023500090F8E50004280ED14D4890ED530AB1EEF7
:10236000400A30EE090AB0EE409AB7EE000A38EEA5
:10237000800AF0EE408AF5EEC08AF1EE10FA04DD34
:1023800089EE280AB0EE409A03E01FED320A8DED87
:10239000150A94ED2B0AB1EE400AF0EE080A30EE71
:1023A000600AF6EE000A20EE200AF0EE408AB7EE50
:1023B000001A5FED3C0AB0EE680A11F039FDF0EE4C
:1023C000408A94ED2B0AD4ED250A00EE880ADDED53
:1023D000150AB7EE001A71EE600A20EE200AF7EE39
:1023E000000A70EEE80A2B4890ED101AB1EE411A7F
:1023F00060EE810A94ED101A60EE810A48EE890AB7
:102400009DED151A01EE200A84ED2B0A94ED290AA0
:10241000DDED160A20EE200AD4ED2A0A9DED171AEA
:1024200000EE810A84ED260A94ED290AB1EE400AF5
:10243000DDED170A20EE200AD4ED2A0A9DED161ACA
:1024400000EE810A84ED270A94ED2B0A84ED280A18
:1024500000BF0020104981F86000104981F8A002F7
:102460000B4981F83C000021094880F8E410094834
:10247000C1750120207004F10C000DF0CBFB206928
:102480006061207818B0BDEC108B10BD74B00020D6
:102490002CA60020C85500204C5300209056002048
:1024A00010B52DED028B86B00446D7A0A16801F0CF
:1024B000FBF8322002F083FCD748FEF7BDFED74878
:1024C00001F0F4FAD44890ED1D1AF0EE410A90EDB7
:1024D0001C1AB0EE410A0FF083FADFEDD10A20EEAC
:1024E000200A84ED170ACC4890ED1B0AD0ED1A0A99
:1024F00080EE201AB0EE418AB0EE480A0FF0D4F90F
:10250000B1EE400ADFEDC60A20EE200A84ED180A7B
:10251000D4ED170AB0EE600A04A905A8FDF7E6FE9F
:10252000D4ED180AB0EE600A02A903A8FDF7DEFE9A
:10253000BA4890EDB71ADDED021A21EE211AD0ED5E
:10254000B81A9DED032A61EE821A9DED052A01EE6F
:10255000821AD0EDB91A9DED032A61EE821A9DED23
:10256000042A01EE821AF0EE410A90EDB81AB1EE9B
:10257000411ADDED041A21EE211AD0EDB91A9DEDB4
:10258000052A01EE821AB0EE410A0FF029FADFEDBA
:10259000A40A20EE200A84ED190A94ED170AF0EE41
:1025A000000A80EE201AB0EE418A04A905A8B0EE18
:1025B000480AFDF79BFE94ED180AF0EE000A80EE43
:1025C000201AB0EE418A02A903A8B0EE480AFDF72E
:1025D0008DFE94ED190AF0EE000A80EE201AB0EE9E
:1025E000418A01A96846B0EE480AFDF77FFE9DEDDD
:1025F000010ADDED020A20EE200ADDED040A20EEDC
:10260000200ADDED000A9DED031A60EE810A9DEDC2
:10261000051A00EE810A84ED2D0A9DED010ADDED1B
:10262000020A20EE200ADDED050A20EE200ADDED8B
:10263000000A9DED031A60EE810A9DED041A00EE7A
:10264000C10A84ED2E0A9DED010ADDED030A20EE9C
:10265000200ADDED040A20EE200ADDED000A9DEDE2
:10266000021A60EE810A9DED051A00EE810A84EDE2
:102670002F0A9DED000ADDED020A20EE200ADDEDB5
:10268000040A20EE200ADDED010A9DED031A60EE3A
:10269000810A9DED051A00EEC10A84ED300A94ED21
:1026A0002F0A20EE000AD4ED300A94ED301A00EE25
:1026B000810AF7EE000AB0EE001A41EE400AC4EDBE
:1026C000080A94ED2E0AD4ED2F0A20EE200AD4ED4C
:1026D0002D0A94ED301A00EEC10AF0EE000A20EE49
:1026E000200A84ED090A94ED2E0AD4ED300A20EE7A
:1026F000200AD4ED2D0A94ED2F1A00EE810AF0EE97
:10270000000A20EE200A84ED0A0A94ED2E0AD4ED88
:102710002F0A20EE200AD4ED2D0A94ED301A00EE97
:10272000810AF0EE000A20EE200A84ED0B0A94EDF7
:102730002E0A20EE000AD4ED300A94ED301A00EE95
:10274000810AF7EE000AB0EE001A41EE400AC4ED2D
:102750000C0A94ED2F0AD4ED300A20EE200AD4EDB5
:102760002D0A94ED2E1A00EEC10AF0EE000A20EEBA
:10277000200A84ED0D0A94ED2E0AD4ED300A20EEE5
:10278000200AD4ED2D0A94ED2F1A00EEC10AF0EEC6
:10279000000A20EE200A84ED0E0A94ED2F0AD4EDF3
:1027A000300A20EE200AD4ED2D0A94ED2E1A00EE08
:1027B000810AF0EE000A20EE200A84ED0F0A94ED63
:1027C0002E0A20EE000AD4ED2F0A94ED2F1A00EE07
:1027D000810AF7EE000AB0EE001A41EE400AC4ED9D
:1027E000100A2046FFF78AF840B90EA0A16800F051
:1027F0005BFF002006B0BDEC028B10BD0DA0A168F0
:1028000000F052FF0120F5E70D0A257320496E699B
:10281000742E2E2E0D0A00004C53002090560020DE
:10282000E02E6542257320496E69742E5B4E4F5D24
:102830000D0A0000257320496E69742E5B4F4B5DB5
:102840000D0A00000A46116881600021017092EDB6
:10285000010A80ED070A00BF35E09FED2D0A00F167
:10286000500303EB810383ED000A9FED290A00F179
:102870005C0303EB810383ED000A9FED250A00F161
:10288000740303EB810383ED000A9FED210A00F13D
:102890008C0303EB810383ED000A9FED1D0A00F119
:1028A000A40303EB810383ED000A02F1080303EBA9
:1028B000810393ED000A00F1440303EB810383EDF0
:1028C000000A4B1CD9B20329C7DBB7EE000A80ED22
:1028D0002D0A9FED0F0A80ED2E0A9FED0D0A80ED67
:1028E0002F0A9FED0B0A80ED300A9FED090A80ED5B
:1028F000310A9FED070A80ED320A9FED050A80ED4F
:10290000330A00214161012101760021417670479F
:102910000000000010B504462146024804F093F878
:1029200010BD00008844002010B5024804F07AF879
:1029300010BD00008844002010B5002400F01AF8F3
:10294000012801D0022010BD0849094804F043FACB
:10295000044644B94FF40061054804F0D4FB08B1C3
:10296000012400E000242046EDE70000E8440020B8
:102970008844002008B5012000909DF8000008BDA3
:102980002DE9FC47044616461F46DDE90A89002565
:1029900032463B4621460948CDE9008904F008FB50
:1029A00000B101253DB90649044803F0B5FF08B15F
:1029B000012500E000252846BDE8FC87884400206A
:1029C00000E1F5052DE9FC47044616461F46DDE902
:1029D0000A89002532463B4621460948CDE900894F
:1029E00004F0D0FB00B101253DB90649044803F0CD
:1029F000D1FF08B1012500E000252846BDE8FC878D
:102A00008844002000E1F50538B50446B4F8940088
:102A100000EE100AB8EE400ADFED220A80EE201A1E
:102A20009FED210A21EE000AF3EE020A20EE200AB1
:102A3000F0EE080A80EE201A84ED271A9620005B3B
:102A400000EE100AB8EE400ADFED180A80EE201AF8
:102A50009FED170A71EE400A9FED161A80EE810A6B
:102A6000F3EE090A30EE200A84ED280A012004F171
:102A70008E03022204F19C01009004F1A4000CF0EA
:102A80004BFB94ED290AD4ED260AB4EEE00AF1EEF0
:102A900010FA03D2012084F8920002E0002084F8AA
:102AA000920038BD0000804533335340B8269B4424
:102AB0005C8F423F0AD7233B10B5044646A0A1686D
:102AC00000F0F2FD606805F0ADF8E168606805F0BF
:102AD0008DFA20680068806840F00100216809686C
:102AE000886020680068806840F480702168096808
:102AF000886020680068806840F08040216809682C
:102B000088602068806B0068006820F00100216800
:102B1000896B09680860206800684C302168896BFF
:102B20000968886002202168896B0968486004F19F
:102B300094002168896B0968C8602068806B006810
:102B40002949884204D9294827494C3908601AE0A4
:102B50002068806B00682649884204D923482249AE
:102B6000503908600FE02068806B006820496039A8
:102B7000884204D91D481E49B839C86003E01B4883
:102B80001B49B83988602068806B0068006840F095
:102B900001002168896B096808600A2002F00FF9BA
:102BA0002046FFF731FF94ED290AF2EE0A0AB4EE4F
:102BB000E00AF1EE10FA07DD9FED0E0A84ED260A19
:102BC0000DA000F071FD02E00FA000F06DFD12A05D
:102BD000A16800F069FD10BD0D0A257320496E69DA
:102BE000742E2E2E0D0A0000586402403D00800015
:102BF000B8600240CDCC6C412D2D3473204C6970EF
:102C00006F210D0A000000002D2D3373204C6970D8
:102C10006F210D0A00000000257320496E69742E93
:102C20000D0A00000A6802604A6842608A68826091
:102C3000CA68C2600022A0F88E200B8A902213522C
:102C4000002280F8922002744274A0F88A2080F852
:102C50008C2080F88D209FED020A80ED260A7047B7
:102C60009A993141017C01B97047417C01290AD10F
:102C7000B0F88A10491E89B2A0F88A1011B9002153
:102C800001744174F0E7B0F88A2090F88C3000F1BC
:102C9000620131F813108A422AD1C16821B900219A
:102CA00042681268516323E0C168042904D10021FD
:102CB0004268126891631BE0C168082904D10021B1
:102CC00042681268D16313E0C1680C2904D1002165
:102CD0004268126811640BE0C168102904D1002118
:102CE00042681268916503E0002142681268D1656C
:102CF000B0F88A10491E89B2A0F88A1000295CD168
:102D000090F88C1090F88D20914224DA90F88C2065
:102D100000F13A0131F81210A0F88A1090F88C20D6
:102D200000F1120131F81210491042681268516323
:102D300090F88C2000F1120131F8121042681268EC
:102D4000D162002142681268516290F88C10491CCF
:102D500080F88C1031E0012141744FF47A71A0F8B1
:102D60008A10C16821B9002142681268516323E0CA
:102D7000C168042904D100214268126891631BE0F4
:102D8000C168082904D1002142681268D16313E0A8
:102D9000C1680C2904D100214268126811640BE05B
:102DA000C168102904D1002142681268916503E0CE
:102DB000002142681268D16556E700BF54E7F0B5BC
:102DC0000D46059C142C00DD142400218A308170EE
:102DD000C470012120F88A19002110E035F8117023
:102DE00000F1120626F8117032F81170283626F814
:102DF000117033F81170283626F81170491CA14261
:102E0000ECDB01210174F0BD10B58AB00446207CD2
:102E1000012801D10AB010BD0E4A07CA07AB07C38B
:102E20000C480C30D0E900128068CDE904120690FD
:102E3000084A1832D2E900109268CDE902020191E5
:102E4000062004AB07AA01A900902046FFF7B7FFB0
:102E500000BFDFE7B488010800BFFEE710B50446F5
:102E60002F480068401C2E4908602E4800680968F9
:102E7000B1FBF0F200FB12112A480068401E8142AB
:102E800003D12948006812F0D1FD2848007800B924
:102E900010BD2448406822490968B1FBF0F200FBEC
:102EA000121120484068401E814203D1204800682A
:102EB00012F0BCFD1B48806819490968B1FBF0F2AB
:102EC00000FB121117488068401E814203D1194847
:102ED000006812F0ABFD1348C06811490968B1FBE6
:102EE000F0F200FB12110F48C068401E814203D16E
:102EF0001148006812F09AFD0A48006908490968FB
:102F0000B1FBF0F200FB121106480069401E81423D
:102F100003D10A48006812F089FD00BFB8E700003D
:102F2000A4000020A80000208C000020A0000020A9
:102F30009000002094000020980000209C000020B9
:102F400010B58AB0044604F501700CF063FE94F8E5
:102F5000D60090B9B4F90C12B4F90E02814206DA27
:102F6000B4F80C02401C00B2A4F80C0202E00420E9
:102F700084F8120200200AB010BD002084F8D600A8
:102F8000A4F80C022079012801D10020F3E70120E8
:102F9000207100BFD820005D50280BD103236A4662
:102FA0002C2104F1D7000CF047F900B91AE00120F8
:102FB00084F81002D820005D532805D104F1D9000F
:102FC000FDF7EBFA0F490876D820005D522808D1AA
:102FD00005220DA104F1D800FDF798FA08B90CF00C
:102FE000F9FA00BF00BF0020207104F501700CF059
:102FF00011FE4FF402700059C4F8140294F8100244
:10300000B9E70000D44B002052455345540000005E
:1030100010B504462068406E0068006820F001008A
:103020002168496E096808602068006824302168BA
:10303000496E09688860C8202168496E096848603F
:1030400004F10C002168496E0968C8602068406E70
:1030500000685949884205D94FF4741056494C39D3
:1030600008601DE02068406E00685449884205D918
:103070004FF4741050495039086011E02068406ED8
:1030800000684E496039884205D94FF474104B49A5
:10309000B839C86004E04FF474104849B839886002
:1030A0002068406E0068006840F001002168496EA9
:1030B0000968086020680068806840F04000216866
:1030C000096888602068006E0068006820F00100D0
:1030D0002168096E09680860206800682830216846
:1030E000096E0968886064202168096E0968486073
:1030F00004F5D0702168096E0968C8602068006E08
:1031000000682D49884205D94FF074602A494C392E
:1031100008601DE02068006E00682849884205D9D3
:103120004FF0746024495039086011E02068006E47
:10313000006822496039884205D94FF074601F4900
:10314000B839C86004E04FF074601C49B839886031
:103150002068006E0068006840F010002168096E69
:103160000968086020680068806840F08000216875
:10317000096888601620216809680862206800686C
:10318000006840F010002168096808600CA0A16880
:1031900000F08AFA94F81102012804D00CA000F083
:1031A00083FA002010BD042084F811020CA0A1684D
:1031B00000F07AFA0120F5E758640240B860024056
:1031C0000D0A257320496E69742E2E2E0D0A0000FB
:1031D0002D2D506172205B4E4F5D0D0A00000000E6
:1031E000257320496E69742E5B4F4B5D0D0A0000FC
:1031F000002280F81022012280F81122002280F89B
:1032000012220A680260002202714A68826000226B
:1032100080F8D620A0F8D420A0F80C220B8940F228
:103220000E2213520022C0F8142270471A48016877
:10323000096E0968194A914204D91949174A4C3A4A
:1032400011601AE00168096E0968164A914204D9B2
:103250001349124A503A11600FE00168096E09687B
:10326000104A603A914204D90D490E4AB83AD160E9
:1032700003E00B490B4AB83A91600168096E09688E
:10328000096821F001010268126E126811600021C4
:1032900080F873107047000074B00020586402403A
:1032A0003D008000B86002401C480168096E096852
:1032B0001B4A914205D94FF47461194A4C3A116086
:1032C0001DE00168096E0968164A914205D94FF45C
:1032D0007461134A503A116011E00168096E09687F
:1032E000104A603A914205D94FF474610D4AB83AD8
:1032F000D16004E04FF474610A4AB83A9160016801
:10330000096E0968096821F001010268126E1268ED
:103310001160002180F88A107047000084AF0020FF
:1033200058640240B86002401A480168096E096892
:10333000194A914204D91949174A4C3A11601AE0C6
:103340000168096E0968164A914204D91349124A64
:10335000503A11600FE00168096E0968104A603A3E
:10336000914204D90D490E4AB83AD16003E00B49A5
:103370000B4AB83A91600168096E0968096821F042
:1033800001010268126E12681160002180F84C1071
:1033900070470000A8AE0020586402403D00800045
:1033A000B860024010B5024801F022FB10BD0000D9
:1033B0003849002010B50249886D01F019FB10BD95
:1033C0008844002010B50249C86D01F011FB10BD02
:1033D000884400201C480168096E09681B4A914214
:1033E00005D94FF07461194A4C3A11601DE001682B
:1033F000096E0968164A914205D94FF07461134A63
:10340000503A116011E00168096E0968104A603A8B
:10341000914205D94FF074610D4AB83AD16004E089
:103420004FF074610A4AB83A91600168096E096800
:10343000096821F001010268126E12681160002112
:1034400080F89F1170470000BC490020586402407A
:10345000B86002400146087810381823B0FBF3F238
:103460000848805CC865032A05D908686FF309001D
:10347000001D886503E008686FF309008865886DA2
:103480007047000098870108014600208A6A8B690E
:1034900003BB32B1012A0CD0022A10D0032A17D163
:1034A00015E0CB6A03F08073B3F1807F00D1012077
:1034B0000FE0CB6AB3F1C07F00D1012009E0CB6AF5
:1034C00003F08073B3F1807F00D1012001E000E0C0
:1034D00000BF35E08B69B3F5005F1BD132B1012A23
:1034E00006D0022A0CD0032A12D10BE0012010E0F2
:1034F000CB6A03F08073B3F1807F00D1012008E034
:10350000012006E0CB6AB3F1C07F00D1012000E0CA
:1035100000BF15E032B1012A05D0022A04D0032AE7
:103520000CD103E000BF00BF012008E0CB6A03F02C
:103530008073B3F1807F00D1012000E000BF00BFA5
:10354000704730B50468246824F4802405682C6032
:10355000046863608468402C04D10468A260046835
:10356000E16003E00468A1600468E26030BD00002F
:103570000FB438B5324C05A800904FF4967104F59D
:10358000D070009B049A0EF04DF90020009094F842
:103590009F01012802D138BC5DF814FB2068006E41
:1035A0000068006820F001002168096E0968086061
:1035B00004F5D070FCF7A3FF2168096E0968486024
:1035C00004F5D0702168096E0968C8602068006E33
:1035D00000681C49884205D94FF0746019494C397C
:1035E00008601DE02068006E00681749884205D910
:1035F0004FF0746013495039086011E02068006E84
:10360000006811496039884205D94FF074600E494D
:10361000B839C86004E04FF074600B49B83988606D
:103620002068006E0068006840F001002168096EA3
:1036300009680860012084F89F0100BFABE7000023
:10364000BC49002058640240B860024070470246FE
:103650000B46002124E0585C2B2802D02D2806D1EF
:1036600002E00120505404E0FF20505401E000200B
:10367000704700BF491C585C582804D0592805D011
:103680005A2809D105E00020505407E00120505489
:1036900004E00220505401E00020E9E700BF491C8B
:1036A0000629D8DB0120E3E70FB438B505A8009060
:1036B0004FF496710948009B049A0EF0B3F800206D
:1036C00000900648FCF71BFF84B2142322460349EE
:1036D000034804F0EDFE38BC5DF814FB20520020D6
:1036E0000C40002010B5244C2448006800F4806091
:1036F00088B104F120000CF08DFA4FF4806120486D
:1037000001F076FC18B9A08C2086012020754FF4BA
:1037100080601A4908601948006800F4006050B3DE
:1037200004F128000CF076FA4FF40061144801F01F
:103730005FFCE0B9E06A642819D942F21071E06ACE
:10374000884214D20F4AB2F90020E16A881A002890
:1037500001DB014600E04142B1F57A7F07DAA08D36
:103760006086608E00B207490880012161754FF4C0
:1037700000600249086010BDC8550020143C01409B
:10378000000C0240DC00002000BFFEE73EB504460E
:10379000201D0CF03FFA207D80B9607D70B9B4F92E
:1037A0001010B4F91200814204DA208A401C00B2E1
:1037B000208201E00420607600203EBD00202082AF
:1037C000207D012822D100202075208E00EE100AD5
:1037D000F8EE400A9FED341A9FED340A10EE810A8C
:1037E00084ED0D0A94ED0D0AF0EE080AB4EEE00A3D
:1037F000F1EE10FA0AD294ED0D0ADFED2D0AB4EEC7
:10380000E00AF1EE10FA01DD0120A075607D0128CB
:1038100041D100216175608E00EE100AF8EE400A79
:103820009FED241A9FED240A10EE810A84ED0E0A02
:1038300001200EE004F1880101EB800191ED000A06
:10384000421E04F1880101EB820181ED000A411C56
:10385000C8B20F28EEDB94ED0E0A84ED300A01AAFF
:103860000F2104F1880006F0FBF89DED010ADFED61
:10387000130A20EE200A84ED120A012004F10C0341
:10388000024604F13801009004F140000BF044FCC2
:103890000121E17500BFA07D08B9E07D08B10120DC
:1038A0008BE7002089E70000074232397B142E3E67
:1038B0000AD7233C6F12833A85EBD13E0000C84201
:1038C00010B50446282001F0D0FE11A02168FFF7B2
:1038D000EBFE207E012804D011A0FFF7E5FE0020BA
:1038E00010BD0A2001F06BFA042020762046FFF775
:1038F0004DFF20B90EA0FFF7D7FE0020F0E710A083
:10390000FFF7D2FE12A02168FFF7CEFE0120E7E705
:103910000D0A257320496E69742E2E2E0D0A0000A3
:103920002D2D506172205B4E4F5D0D0A000000008E
:103930002D2D526376205B4E4F5D0D0A0000000076
:103940002D2D526376205B4F4B5D0D0A0000000069
:10395000257320496E69742E5B4F4B5D0D0A000084
:1039600030B5002207E0002400F116039C549B1E92
:103970009C54531CDAB2022AF5DB012202760022A3
:1039800042760A680260002202828B88438282812A
:10399000CB88C38100BF13E000230DE09FED0A0A2E
:1039A000C2EB021500F14C0404EB850404EB830424
:1039B00084ED000A5C1CE3B20F2BEFDB531CDAB280
:1039C000022AE9DB30BD00000000000030B50446EB
:1039D0000D4600222946204600F002F830BD0000C6
:1039E000F0B50346012500241148407A01281CDC6B
:1039F00000200F4E767A0E4FB8553846467A001D95
:103A000040F82630001F467A083082553E46707ACC
:103A1000461C7E72044604F1300008703A2048705B
:103A20002F2088700020C87000252846F0BD0000B7
:103A3000984900200FB438B5194C207A042802D0D8
:103A400038BC5DF814FB05A800904FF4967104F2A1
:103A5000BA40009B049A0DF0E5FE04F2BA40FCF770
:103A60004EFD054604F590632A4604F2BA4104F57A
:103A7000147011F000FA84F87C040A480078642875
:103A800005DA08480078401C0649087005E0002067
:103A900004490870044811F07FF900BFD0E7000026
:103AA000D44B0020CB000020244E00202DE9F04F05
:103AB0002DED048BC5B0044694F8A102012805D170
:103AC000002045B0BDEC048BBDE8F08F04F5D2704A
:103AD0000CF0A0F894F8D70098B9B4F9AC11B4F987
:103AE000AE01814206DAB4F8AC01401C00B2A4F881
:103AF000AC0104E0042084F8A20284F8D80200207B
:103B0000DFE7002084F8D700A4F8AC012079012871
:103B100001D10020D5E7012020714FF000094FF0BE
:103B2000000A00BF04F1D7004190032342AA0A21F2
:103B3000401C0BF081FB8346BBF1000F00D131E14B
:103B400000252AE141A850F82500007947287DD1B9
:103B500041AB681C53F8200053F82530C21A41A825
:103B600050F82500411C01A8FCF78FFC0E2333AA56
:103B70002C2101A80BF060FB0E2800D010E1339837
:103B80000EF05AF8B7EEC00B84ED6C0A94ED6C0A97
:103B9000BDEEC00A10EE106A42F2107096FBF0F013
:103BA0004FF46161484342F2107196FBF1F201FB60
:103BB0001261642291FBF2F1C1EB011100EB810073
:103BC000114696FBF1F201FB1261084400EE100A67
:103BD000B8EEC01AD4ED6C0A00EE106AB8EEC00A56
:103BE00030EEC00A31EE000A84ED6C0A34980EF013
:103BF00023F884ED6E0B94ED6E0BBDEEC00B10EE52
:103C0000107A642097FBF0F000EE100AB8EEC08B3B
:103C10003499881C0EF010F89FEDFE1B80EE012BEE
:103C200038EE020B84ED6E0B35980078532805D1E1
:103C300094ED6E0BB1EE400B84ED6E0B36980DF0EB
:103C4000FBFF84ED700B94ED700B00E043E0BDEEE4
:103C5000C00B10EE108A642098FBF0F000EE100A02
:103C6000B8EEC08B3699C81C0DF0E6FF9FEDE91B3E
:103C700080EE012B38EE020B84ED700B3798007844
:103C8000572805D194ED700BB1EE400B84ED700B0D
:103C90003898007884F8C8013998FCF77EFC84F8DD
:103CA000C9013A980DF0C8FFB7EEC00B84ED730A56
:103CB0003B980DF0C1FFB7EEC00B84ED740A3D9840
:103CC000FCF76BFC00EE100AB8EEC00A84ED750A32
:103CD0004FF0010900BF41A850F82500007956288F
:103CE00026D141AB681C53F8200053F82530C21A86
:103CF00041A850F82500411C01A8FCF7C6FB092388
:103D000033AA2C2101A80BF097FA092800D047E02C
:103D100033980DF091FFB7EEC00B84ED760A399819
:103D20000DF08AFFB7EEC00B84ED770A4FF0010962
:103D300041A850F82500007943282CD141AB681CDC
:103D400053F8200053F82530C21A41A850F8250036
:103D5000411C01A8FCF799FB032333AA2C2101A8DD
:103D60000BF06AFA032800D01AE03398FCF715FC30
:103D700000B2A4F886023498FCF70FFC01B24FF4AD
:103D8000227001533598FCF708FC01B240F28A20FA
:103D900001534FF0010A681CC5B25D45FFF6D2AE73
:103DA00000BF00BF00BF00202071BAF1010F7DD11C
:103DB000204600F087FB94F97A1204F2862030F84E
:103DC000111094F97A22801F30F81200081A94F921
:103DD0007912484300B2A4F88C0294F97C1204F2E0
:103DE000862030F8111094F97C22801F30F81200E0
:103DF000081A94F97B12484301B240F28E20015315
:103E000094F97E1204F2862030F8111094F97E2283
:103E1000801F30F81200081A94F97D12484301B24D
:103E20004FF424700153B4F98C0200EE100AB8EE7E
:103E3000C00A84EDA50A84EDB70AB4F98E0200EE3B
:103E4000100AB8EEC00A84EDA60A84EDB80AB4F9E7
:103E5000900200EE100AB8EEC00A84EDA70A84EDC5
:103E6000B90A94F8D902042802D1012084F8DA02B0
:103E700094EDB70A20EE000AD4EDB80A94EDB81A12
:103E800000EE810AD4EDB90A94EDB91AB0EE408A79
:103E900000EE818A9FED610AB4EEC08AF1EE10FA5D
:103EA00008DC9FED5F0AB4EEC08A00E006E0F1EEA8
:103EB00010FA02D2002084F8DA0200BFB9F1010F33
:103EC0007DD194F8C901062804DA042084F8A202FE
:103ED0000020F6E594ED6E0B9FED521B20EE010BDA
:103EE00084ED960B94ED700B9FED4E1B20EE010BB5
:103EF00084ED980B94ED740AD4ED750A30EE200A27
:103F0000B7EEC00A84ED9A0B94ED961BB0EE410B10
:103F10000EF072FBB0EE409B94ED961BB0EE410BA1
:103F20000EF06AFB29EE001B9FED402BB7EE000B55
:103F300002EE410BB0EE408B0EF0B6FB9FED3D1B49
:103F400081EE002B84ED9C2B94ED961BB0EE410B83
:103F50000DF08EFE94ED9C1B94ED9A2B31EE021B1E
:103F600020EE018B94ED981BB0EE410B0DF080FE1E
:103F700028EE000B84ED900B94ED961BB0EE410BF8
:103F80000DF076FE94ED9C1B94ED9A2B31EE021B06
:103F900020EE018B94ED981BB0EE410B0EF02CFB44
:103FA00028EE000B84ED920B94ED961BB0EE410BC6
:103FB0000EF022FBB0EE401B94ED9A0B00E0A8E05F
:103FC00094ED9C2B9FED1D3B02EE030B21EE000BAD
:103FD00084ED940B204600F0ABF894ED900B94ED3B
:103FE0008A1B30EE410B84ED900B94ED920B94ED17
:103FF0008C1B30EE410B84ED920B94ED940B94ED01
:104000008E1B30EE410B84ED940B94ED780B94ED08
:10401000901B17E00000000000004E4000C8AF48B1
:1040200000401C47000000A046DF913F280EC94E0B
:10403000AB6B7B3F00000040A6545841E46D62A981
:1040400028C9EF3F20EE010B94ED7A1B94ED922BE3
:1040500001EE020B94ED7C1B94ED942B01EE020B10
:1040600084EDAA0B94ED7E0B94ED901B20EE010BDA
:1040700094ED801B94ED922B01EE020B94ED821BCC
:1040800094ED942B01EE020B84EDAC0B94ED840BBC
:1040900094ED901B20EE010B94ED861B94ED922B7A
:1040A00001EE020B94ED881B94ED942B01EE020BB4
:1040B00084EDAE0B94ED761ADFED1C1A21EE211A79
:1040C000B7EEC11AB0EE410B0DF0D2FD94ED771AA8
:1040D000B7EEC11A20EE010B84EDB00B94ED761A09
:1040E000DFED121A21EE211AB7EEC11AB0EE410B24
:1040F0000EF082FA94ED771AB7EEC11A20EE010B9A
:1041000084EDB20B94F8A102042802D1012084F8B6
:10411000A00204F5D2700BF07DFD4FF4D47000596D
:10412000C4F8A40294F8A002CBE4000035FA8E3C57
:1041300010B52DED088B044694F8A00101280CD190
:10414000002084F8A001032084F8A10201203A494C
:1041500008703AA0A168FFF7A7FA3748007818B9A5
:104160000120BDEC088B10BD37480088642806DAB2
:1041700035480088401C344908800020F1E794ED60
:10418000900B84ED8A0B94ED920B84ED8C0B94EDE7
:10419000940B84ED8E0B94ED6E1BB0EE410B0DF085
:1041A00067FDB0EE409B94ED6E1BB0EE410B0EF040
:1041B00023FAB0EE40AB94ED701BB0EE410B0DF066
:1041C00057FDB0EE40BB94ED701BB0EE410B0EF00E
:1041D00013FAB0EE408BB1EE4A0B20EE0B0B84EDE0
:1041E000780BB1EE4A0B20EE080B84ED7A0B84EDD0
:1041F0007C9BB1EE480B84ED7E0B84ED80BB9FED84
:10420000130B84ED820BB1EE490B20EE0B0B84ED0A
:10421000840BB1EE490B20EE080B84ED860BB1EE5A
:104220004A0B84ED880B042084F8A1020020024987
:104230000870012095E70000DE0000200D0A2573BC
:104240002043616C690D0A00E000002000000000BE
:104250000000000010B504462068406E0068006849
:1042600020F001002168496E096808602068006834
:1042700024302168496E09688860C8202168496E29
:104280000968486004F10C002168496E0968C8603B
:104290002068406E00683B49884205D94FF474603D
:1042A00038494C3908601DE02068406E0068364986
:1042B000884205D94FF4746032495039086011E0E2
:1042C0002068406E006830496039884205D94FF453
:1042D00074602D49B839C86004E04FF474602A490D
:1042E000B83988602068406E0068006840F00100BE
:1042F0002168496E0968086020680068806840F09D
:1043000040002168096888601620216809680862F1
:1043100020680068006840F01000216809680860A3
:104320001AA0A168FFF7C0F994F8A102012804D0EF
:104330001AA0FFF7B9F9002010BD94F8A2020128D5
:1043400004D11AA0FFF7B0F90020F5E7042084F8A3
:10435000A10284F8D902012084F8A001FA2000F01B
:104360002EFD94F8D70020B914A0FFF79DF9002086
:10437000E2E716A0FFF798F918A0A168FFF794F9F3
:104380000120D9E758640240B86002400D0A257345
:1043900020496E69742E2E2E0D0A00002D2D5061BD
:1043A00072205B4E4F5D0D0A000000002D2D446908
:1043B00072205B4E4F5D0D0A000000002D2D5263F0
:1043C00076205B4E4F5D0D0A000000002D2D5263DC
:1043D00076205B4F4B5D0D0A0000000025732049DD
:1043E0006E69742E5B4F4B5D0D0A000070B504467C
:1043F0000D46002084F8A002012084F8A1020020CC
:1044000084F8A20228682060002020716868A060FB
:10441000002084F8D700A4F8D40084F8D600A4F8CB
:10442000AC01A9894FF4D77001530020C4F8A4024D
:1044300084F8DA0284F8780284F8D802012084F83B
:10444000D90204F27920A968FFF701F910B9012017
:1044500084F8A20200202DE005F1100101EB80019B
:1044600091ED000ABDEEC00A10EE101A0AB204F572
:10447000207121F810209FED110B00EB4002A039B4
:1044800001EBC20181ED000B9FED0C0B00EB400234
:1044900004F5F07101EBC20181ED020B9FED070BFA
:1044A00000EB400204F5F07101EBC20181ED040B59
:1044B000411CC8B20328CFDB70BD00000000000023
:1044C0000000000010B58EB0044694F87802012870
:1044D0000CD1002084F87802032084F8D90201204E
:1044E0005349087053A0A168FFF7DEF850480078E0
:1044F00010B901200EB010BD52480088B0F5C87F39
:1045000031DAB4F9860200EE100AB8EEC00A4D485E
:10451000008800EB40004C4901EB800080ED000A70
:10452000B4F9880200EE100AB8EEC00A45480088C7
:1045300000EB400001EB800080ED010AB4F98A0233
:1045400000EE100AB8EEC00A3E48008800EB4000BA
:1045500001EB800080ED020A3A480088401C39498E
:1045600008800020C6E700203649088007A808A96F
:104570000BAB9FED360A6422CDE900109100324862
:1045800012F010F99DED070AB7EEC00A8DED040B8D
:104590009DED0A0AB7EEC00A8DED020B9DED090AEA
:1045A000B7EEC00A8DED000B9DED081AB7EEC11AEB
:1045B000B0EE410B53EC102B25A0A168FFF774F867
:1045C0009DED070ADFED310AB4EEE00AF1EE10FAD4
:1045D00025DD9DED070ADFED2E0AB4EEE00AF1EECF
:1045E00010FA1CD29DED080ABDEEC00A10EE100AAA
:1045F00000B2A4F880029DED090ABDEEC00A10EEDB
:10460000100A01B240F2822001539DED0A0ABDEE6C
:10461000C00A10EE100A01B24FF4217001530420B9
:1046200084F8D902002002490870012062E70000E6
:10463000E20000200D0A2573204D61672043616C64
:10464000690D0A00E40000207859002000000000F5
:104650000D0A2573204D61672043616C692D2D4241
:104660006961732069733A25342E32662025342E11
:1046700032662025342E32662C52616469757320AF
:1046800069733A25342E32660D0A00000000964305
:104690000000FA4318B502460020009000BF92F8CF
:1046A0003C00012801D1022018BD012082F83C0005
:1046B00000BF0868092822D91068C0680B780A3B37
:1046C00003EB43040723A34098431368D860594B76
:1046D0000868984207D11068C0680B7A40EA036006
:1046E0001368D8601FE00B780A3B03EB430388682C
:1046F00098401368DB6818431368D86013E01068AB
:1047000000690B7803EB43040723A3409843136825
:1047100018610B7803EB43038868984013681B69A2
:104720001843136818614868072817D21068406B4F
:104730000B795B1E03EB83041F23A340984313688C
:104740005863088880B20B795B1E03EB83039840A3
:1047500013685B6B18431368586331E048680D2891
:1047600017D21068006B0B79DB1F03EB83041F2348
:10477000A340984313681863088880B20B79DB1F45
:1047800003EB8303984013681B6B1843136818638B
:1047900016E01068C06A0B790D3B03EB83041F23FE
:1047A000A34098431368D862088880B20B790D3B08
:1047B00003EB830398401368DB6A18431368D862DD
:1047C0001D4B1068984208D10868122805D11B4873
:1047D000006840F48000C3F80403174B1068984247
:1047E00020D1144B0868984202D00868112819D1CA
:1047F0001248006840F40000104B18600D4B086828
:1048000098420FD10E4800680E4BB0FBF3F000EB5E
:1048100080004000009002E00098401E0090009848
:104820000028F9D100BF002082F83C0000BF00BF83
:104830003AE700001200001000200140042301406C
:104840000400002040420F0070B5044600250CB95A
:10485000012070BD1549A06A884200D000BF206CBD
:1048600030B90020606484F83C00204600F020F855
:10487000206C00F0100088B9206C20F4885040F0C3
:10488000020020642046FCF71BFC00206064206CC2
:1048900020F0020040F00100206400E0012500BF8C
:1048A000002084F83C0000BF2846D2E70100000F3A
:1048B00010B586B004461E492068884236D100BF34
:1048C0001C48006840F480701A4908600846006877
:1048D00000F48070009000BF00BF10200190032002
:1048E00002900020039001A9134800F075FA1348C4
:1048F0001349086000204860002111488160C160B0
:104900004FF4806101614900416189008161491171
:10491000C16100210162416200F08EF908B1FEF729
:1049200033FF00BF0648A063846300BF06B010BD1C
:104930000020014044380240000002401064024060
:104940003849002070B50446A56D00F063FB0646AB
:1049500094F83500022808D08020606500BF002050
:1049600084F8340000BF012070BD2068006820F08A
:104970001600216808602068406920F080002168E6
:104980004861206C08B9A06C28B12068006820F04C
:104990000800216808602068006820F00100216894
:1049A00008600FE000F036FB801B05280AD92020A4
:1049B000606500BF002084F8340000BF032084F845
:1049C0003500D1E72068006800F001000028E9D137
:1049D00094F85C103F208840A86000BF002084F855
:1049E000340000BF012084F835000020BCE700003F
:1049F000F8B50446002000908D4800684FF4165129
:104A0000B0FBF1F7A56D2E6894F85C100820884083
:104A1000304098B12068006800F0040070B1206850
:104A2000006820F004002168086094F85C100820F9
:104A30008840A860606D40F00100606594F85C10EB
:104A40007C488840304068B12068406900F08000B0
:104A500040B194F85C1077488840A860606D40F0E1
:104A60000200606594F85C107248C01C88403040B9
:104A700070B12068006800F0020048B194F85C1042
:104A80006C48C01C8840A860606D40F00400606500
:104A900094F85C1010208840304078B3206800689B
:104AA00000F0080050B394F85C1010208840A86013
:104AB0002068006800F4802080B12068006800F45D
:104AC000002028B9206CC8B12046216C884715E029
:104AD000A06C98B12046A16C88470FE02068006860
:104AE00000F4807028B92068006820F00800216870
:104AF0000860206C10B12046216C884794F85C1047
:104B0000202088403040002865D02068006800F0F0
:104B1000100000285FD094F85C1020208840A86026
:104B200094F83500052828D12068006820F0160088
:104B3000216808602068406920F080002168486191
:104B4000206C08B9A06C28B12068006820F008002B
:104B50002168086094F85C103F208840A86000BF7E
:104B6000002084F8340000BF012084F83500206D57
:104B700010B12046216D8847F8BD2068006800F418
:104B8000802080B12068006800F4002028B9606CA3
:104B900010B12046616C88471DE0E06BD8B120461B
:104BA000E16B884717E02068006800F4807068B9FE
:104BB0002068006820F010002168086000BF002015
:104BC00084F8340000BF012084F83500E06B10B198
:104BD0002046E16B8847606D38B3606D00F00100DE
:104BE000F0B1052084F835002068006820F001004D
:104BF0002168086000BF0098401C0090B84200D9AE
:104C000005E02068006800F001000028F3D100BF33
:104C100000BF002084F8340000BF012084F8350074
:104C2000E06C10B12046E16C884700BFA4E70000AB
:104C300004000020010080002DE9F0410446002519
:104C400000F0E8F9074614B90120BDE8F081606A78
:104C500000B100BF00BF002084F8340000BF022074
:104C600084F835002068006820F0010021680860A1
:104C70000AE000F0CFF9C01B052805D920206065A7
:104C8000032084F83500E0E72068006800F00100A8
:104C90000028EED12068056820480540D4E90101CC
:104CA0000843E16808432169084361690843A16931
:104CB0000843E1690843216A08430543606A042800
:104CC00003D1D4E90B01084305432068056020683F
:104CD000456925F00705606A0543606A04280BD121
:104CE000A06A05432046FEF7CFFB28B1402060654F
:104CF000012084F83500A8E7206845612046FEF7CA
:104D0000A9FB064694F85C103F208840B060002064
:104D10006065012084F83500002096E73F8010E0B0
:104D20002DE9F04704460D4616461F464FF0000891
:104D3000D4F8589000BF94F83400012802D1022022
:104D4000BDE8F087012084F8340000BF94F83500F6
:104D500001282BD1022084F83500002060653B46F5
:104D6000324629462046FEF7ECFB94F85C103F20C3
:104D70008840C9F808002068006840F016002168E3
:104D800008602068406940F0800021684861206C1C
:104D900028B12068006840F0080021680860206899
:104DA000006840F001002168086006E000BF0020B4
:104DB00084F8340000BF4FF002084046C0E731B528
:104DC000002400F027F9044600BF00F023F9001B7F
:104DD00000998842F9D338BDF8B502460B46002148
:104DE00000250024002000BFE4E0012606FA01F5BA
:104DF0001E6806EA0504AC4271D15E68022E02D03C
:104E00005E68122E13D1CF0802F1200656F8270053
:104E10004E07F70E0F26BE40B0434F07FF0E1E6928
:104E2000BE403043CF0802F1200646F82700106844
:104E30004F000326BE40B0431E7906F003064F0024
:104E4000BE40304310605E68012E08D05E68022EBE
:104E500005D05E68112E02D05E68122E13D19068C4
:104E60004F000326BE40B0434F00DE68BE403043D3
:104E70009060506801268E40B0431E79C6F300163C
:104E80008E4030435060D0684F000326BE40B04390
:104E90004F009E68BE403043D0605E6806F080568A
:104EA000B6F1805FA8D100BF444E366846F4804614
:104EB000424F3E603E46366806F48046009600BF8C
:104EC00000BF3F4E8F0856F827008E07370F0F267A
:104ED000BE40B0433B4EB24202D100262EE068E015
:104EE000394EB24201D1012628E0384EB24201D1FA
:104EF000022623E0364EB24201D103261EE0354E93
:104F0000B24201D1042619E0334EB24201D1052646
:104F100014E0324EB24201D106260FE0304EB242CA
:104F200001D107260AE02F4EB24201D1082605E042
:104F30002D4EB24201D1092600E00A268F073F0F0D
:104F4000BE4030431E4E8F0846F82700274E30687B
:104F5000A0435E6806F48036B6F5803F00D120435A
:104F6000224E3060361D3068A0435E6806F400367D
:104F7000B6F5003F00D120431C4E361D3060361D73
:104F80003068A0435E6806F48016B6F5801F00D135
:104F90002043164E08363060361D3068A0435E68E8
:104FA00006F40016B6F5001F00D120430F4E0C3654
:104FB0003060491C1029FFF418AFF8BD4438024096
:104FC000083801400000024000040240000802408E
:104FD000000C024000100240001402400018024081
:104FE000001C02400020024000240240003C01401E
:104FF000024613690B400BB1012000E0002070470E
:1050000042694A40426170470AB1816101E00B0484
:10501000836170470148006870470000000000206D
:10502000024692F8410020282DD100BF92F840009E
:10503000012801D102207047012082F8400000BF02
:10504000242082F841001068006820F001001368F5
:1050500018601068006820F48050136818601068A9
:1050600000680843136818601068006840F0010089
:1050700013681860202082F8410000BF002082F8E9
:10508000400000BFD7E70220D5E7000010B5044676
:105090000CB9012010BD94F8410028B9002084F813
:1050A0004000204600F00EFA242084F841002068D9
:1050B000006820F0010021680860606820F07060DE
:1050C000216808612068806820F4004021688860B9
:1050D000E068012805D1A06840F40040216888609C
:1050E00004E0A06840F4044021688860E068022879
:1050F00002D1800221684860206840681349084353
:10510000216848602068C06820F400402168C860B9
:10511000D4E904010843A16940EA01202168C8607C
:10512000D4E907010843216808602068006840F05E
:1051300001002168086000206064202084F841009C
:105140000020206384F8420000BFA3E70080000233
:105150002DE9FC5F0446894692469B46DDE90C78C2
:105160000E9E002594F8410020287DD117B1B8F19A
:10517000000F02D10120BDE8FC9F00BF94F8400061
:10518000012801D10220F6E7012084F8400000BF89
:10519000FFF740FF054619230122D1032046009561
:1051A00003F072FD08B10320E5E7222084F84100F6
:1051B000402084F84200002060646762A4F82A80DE
:1051C00060635B46524649462046CDE9006503F0E0
:1051D000B7FC80B1606C042806D100BF002084F8C1
:1051E000400000BF0120C6E700BF002084F8400057
:1051F00000BF0320BFE7608DFF280DD9FF20208569
:105200004FF41050009094F828204FF080734946D6
:10521000204603F021FD0CE0608D20854FF41050F6
:10522000009094F828204FF000734946204603F080
:1052300013FD00BF3346002204212046009503F0F1
:1052400023FD08B1032096E72068406AC1B2626A74
:10525000501C60621170208D401E2085608D401EA4
:105260006085208D48BB00E04BE0608D28B333465D
:10527000002280212046009503F006FD08B103209E
:1052800079E7608DFF280CD9FF2020850020009051
:1052900094F828204FF080734946204603F0DCFC48
:1052A0000BE0608D20850020009094F828204FF0BE
:1052B00000734946204603F0CFFC608D0028B9DC1E
:1052C0002A463146204603F00AFD30B1606C0428BE
:1052D00001D101204FE703204DE720202168C8615C
:1052E000206840680849084021684860202084F808
:1052F0004100002084F8420000BF84F8400000BF55
:1053000039E7022037E7000000E800FE2DE9FC5FE6
:105310000446894692469B46DDE90C780E9E0025A0
:1053200094F8410020286ED117B1B8F1000F02D1D6
:105330000120BDE8FC9F00BF94F84000012801D186
:105340000220F6E7012084F8400000BFFFF762FE6C
:10535000054619230122D1032046009503F094FC51
:1053600008B10320E5E7212084F84100402084F8BB
:105370004200002060646762A4F82A8060635B4694
:10538000524649462046CDE9006503F01FFC80B136
:10539000606C042806D100BF002084F8400000BFE4
:1053A0000120C6E700BF002084F8400000BF0320B2
:1053B000BFE7608DFF280CD9FF20208500200090DA
:1053C00094F828204FF080734946204603F044FCAF
:1053D0000BE0608D20850020009094F828204FF08D
:1053E00000734946204603F037FC00BF2A46314689
:1053F000204603F09FFC38B1606C042801D10120E5
:1054000097E7032095E759E0616A481C60620878D5
:1054100021688862608D401E6085208D401E208539
:10542000208D38BB608D28B3334600228021204672
:10543000009503F029FC08B103207AE7608DFF286E
:105440000CD9FF2020850020009094F828204FF0F0
:1054500080734946204603F0FFFB0BE0608D2085FA
:105460000020009094F828204FF000734946204611
:1054700003F0F2FB608D0028B8DC2A463146204656
:1054800003F02DFC30B1606C042801D1012050E7FD
:1054900003204EE720202168C86120684068084941
:1054A000084021684860202084F84100002084F8EA
:1054B000420000BF84F8400000BF3AE7022038E70E
:1054C00000E800FE10B586B00446224920688842F4
:1054D0001CD14FF4407001901220029001200390E3
:1054E000032004900420059001A91B48FFF774FCD9
:1054F00000BF1A48006840F40010184908600846C8
:10550000006800F40010009000BF20E014492068FB
:1055100088421CD14FF4406001901220029001207B
:105520000390032004900420059001A90A48FFF786
:1055300053FC00BF0948006840F480000749086038
:105540000846006800F48000009000BF00BF06B06D
:1055500010BD0000005400400004024040380240EA
:105560000058004002480068401C0149086070472C
:105570000000002010B5032000F0C2F8002000F069
:1055800005F800F047F8002010BD000070B588B0A5
:1055900004460025002600222146372000F072F83C
:1055A000372000F062F800BF1648006840F0200085
:1055B000144908600846006800F02000019000BF10
:1055C00000BF02A903A800F091FE00F0B7FE45005D
:1055D0000D48B5FBF0F0461E0C480D49086040F23E
:1055E000E7310B48C160466000210161816002F033
:1055F00089FA20B9064802F024FB08B070BD0120EA
:10560000FBE700004038024040420F000014004019
:105610004C44002010B5032000F072F8002211461F
:105620006FF00B0000F02EF8002211466FF00A0018
:1056300000F028F8002211466FF0090000F022F86F
:1056400000221146501F00F01DF800221146101FC5
:1056500000F018F800220F21901E00F013F800222D
:105660000F21501E00F00EF810BD00BF00F01F0209
:10567000012191404209920002F1E022C2F800119A
:1056800000BF70472DE9F05F80460D4616460027A3
:1056900005F052FC074639462A46334601F007001A
:1056A000C0F1070ABAF1040F02D94FF0040A01E071
:1056B000C0F1070AD14600F1040ABAF1070F02D27D
:1056C0004FF0000A01E0A0F1030AD4464FF0010AAE
:1056D0000AFA09FAAAF1010A0AEA020A0AFA0CFA13
:1056E0004FF0010B0BFA0CFBABF1010B0BEA030BB8
:1056F0004AEA0B042146404605F026FCBDE8F09F2F
:1057000000BF00F00702064B19684FF6FF0319406F
:10571000044B0B4343EA0221014B196000BF704761
:105720000CED00E00000FA0538B5002400BF204869
:10573000006840F080501E4908600846006800F08C
:105740008050009000BF00BF1A48006840F48030CD
:1057500018490860FFF75EFC044607E0FFF75AFCB3
:10576000001BB0F57A7F01D9032038BD114840688D
:1057700000F48030B0F5803FF0D10E48006840F46E
:1057800000300C490860FFF745FC044607E0FFF7CE
:1057900041FC001BB0F57A7F01D90320E5E70548FD
:1057A000406800F40030B0F5003FF0D10020DCE7A5
:1057B00040380240007000402DE9F84304460026BE
:1057C00000250027A846A946207800F0010088B1EE
:1057D00000BFFE48006820F40000FC49086008464D
:1057E0000068616B0843F949086000BF606B08B945
:1057F0004FF00108206800F40020B0F5002F13D10D
:10580000F2488430006820F44010E16B0843EF490F
:1058100084310860E06BB0F5801F01D14FF00108C2
:10582000E06B08B94FF00109206800F48010B0F572
:10583000801F13D1E5488430006820F44000216CBB
:105840000843E24984310860206CB0F5800F01D133
:105850004FF00108206C08B94FF00109206800F0F2
:105860008070B0F1807F01D14FF00108207800F006
:105870002000202870D100BFD4483830006840F0A4
:105880008050D249383108600846006800F08050E6
:10589000009000BF00BFCE48006840F48070CC4943
:1058A0000860FFF7B7FB064607E0FFF7B3FB801B76
:1058B000642802D90320BDE8F883C548006800F4D5
:1058C00080700028F1D0C1486830006800F440754D
:1058D00085B3208E00F44070A8422BD0BB486830BE
:1058E000006820F44075B9486830006840F48030A2
:1058F000B649683108600846006820F480300860C6
:1059000008460560006800F0010098B1FFF782FBCF
:10591000064608E0FFF77EFB801B41F28831884293
:1059200001D90320C7E7A94868300068C0F34000E8
:105930000028EFD000BF208E00F44070B0F5407F0B
:105940000BD1A248006820F4F810A24A216B114044
:1059500008439E49086006E010E09C48006820F477
:10596000F8109A490860994868300068218EC1F3A0
:105970000B01084395496831086000BF207800F0AA
:105980001000102810D100BF90488430006820F02B
:1059900080708E498431086008460068A16B084316
:1059A0008A498431086000BF208800F48040B0F547
:1059B000804F09D185488830006820F44030616EFE
:1059C0000843824988310860208800F40040B0F51F
:1059D000004F09D17D488830006820F44020A16E36
:1059E00008437A4988310860206800F48030B0F5B7
:1059F000803F09D175488830006820F44010E16E7E
:105A00000843724988310860206800F40030B0F51E
:105A1000003F09D16D488830006820F44000216FB4
:105A200008436A4988310860207800F04000402827
:105A300009D166488830006820F00300616C084393
:105A4000624988310860207800F08000802809D100
:105A50005E488830006820F00C00A16C08435B4968
:105A600088310860208800F48070B0F5807F09D10B
:105A700056488830006820F03000E16C08435349F4
:105A800088310860208800F40070B0F5007F09D1EB
:105A90004E488830006820F0C000216D08434B4913
:105AA00088310860208800F48060B0F5806F09D1EB
:105AB00046488830006820F44070616D08434349CF
:105AC00088310860208800F40060B0F5006F09D1CB
:105AD0003E488830006820F44060A16D08433B498F
